{
  "_format": "hh-sol-artifact-1",
  "contractName": "Campaign",
  "sourceName": "contracts/campaign.sol",
  "abi": [
    {
      "inputs": [
        {
          "internalType": "string",
          "name": "_title",
          "type": "string"
        },
        {
          "internalType": "uint256",
          "name": "_reqAmount",
          "type": "uint256"
        },
        {
          "internalType": "string",
          "name": "_image",
          "type": "string"
        },
        {
          "internalType": "string",
          "name": "_desc",
          "type": "string"
        },
        {
          "internalType": "address",
          "name": "campaignOwner",
          "type": "address"
        },
        {
          "internalType": "string",
          "name": "_category",
          "type": "string"
        }
      ],
      "stateMutability": "nonpayable",
      "type": "constructor"
    },
    {
      "anonymous": false,
      "inputs": [
        {
          "indexed": true,
          "internalType": "address",
          "name": "donor",
          "type": "address"
        },
        {
          "indexed": true,
          "internalType": "uint256",
          "name": "amount",
          "type": "uint256"
        },
        {
          "indexed": true,
          "internalType": "uint256",
          "name": "timestamp",
          "type": "uint256"
        }
      ],
      "name": "donated",
      "type": "event"
    },
    {
      "inputs": [],
      "name": "campaignDetails",
      "outputs": [
        {
          "internalType": "string",
          "name": "title",
          "type": "string"
        },
        {
          "internalType": "uint256",
          "name": "requiredAmount",
          "type": "uint256"
        },
        {
          "internalType": "uint256",
          "name": "receivedAmount",
          "type": "uint256"
        },
        {
          "internalType": "string",
          "name": "image",
          "type": "string"
        },
        {
          "internalType": "string",
          "name": "desc",
          "type": "string"
        },
        {
          "internalType": "string",
          "name": "category",
          "type": "string"
        },
        {
          "internalType": "address payable",
          "name": "owner",
          "type": "address"
        }
      ],
      "stateMutability": "view",
      "type": "function"
    },
    {
      "inputs": [],
      "name": "donate",
      "outputs": [],
      "stateMutability": "payable",
      "type": "function"
    }
  ],
  "bytecode": "0x60806040523480156200001157600080fd5b5060405162000e8a38038062000e8a833981810160405281019062000037919062000317565b856000800190816200004a919062000670565b5083600060030190816200005f919062000670565b508460006001018190555082600060040190816200007e919062000670565b5081600060060160006101000a81548173ffffffffffffffffffffffffffffffffffffffff021916908373ffffffffffffffffffffffffffffffffffffffff1602179055508060006005019081620000d7919062000670565b5050505050505062000757565b6000604051905090565b600080fd5b600080fd5b600080fd5b600080fd5b6000601f19601f8301169050919050565b7f4e487b7100000000000000000000000000000000000000000000000000000000600052604160045260246000fd5b6200014d8262000102565b810181811067ffffffffffffffff821117156200016f576200016e62000113565b5b80604052505050565b600062000184620000e4565b905062000192828262000142565b919050565b600067ffffffffffffffff821115620001b557620001b462000113565b5b620001c08262000102565b9050602081019050919050565b60005b83811015620001ed578082015181840152602081019050620001d0565b60008484015250505050565b6000620002106200020a8462000197565b62000178565b9050828152602081018484840111156200022f576200022e620000fd565b5b6200023c848285620001cd565b509392505050565b600082601f8301126200025c576200025b620000f8565b5b81516200026e848260208601620001f9565b91505092915050565b6000819050919050565b6200028c8162000277565b81146200029857600080fd5b50565b600081519050620002ac8162000281565b92915050565b600073ffffffffffffffffffffffffffffffffffffffff82169050919050565b6000620002df82620002b2565b9050919050565b620002f181620002d2565b8114620002fd57600080fd5b50565b6000815190506200031181620002e6565b92915050565b60008060008060008060c08789031215620003375762000336620000ee565b5b600087015167ffffffffffffffff811115620003585762000357620000f3565b5b6200036689828a0162000244565b96505060206200037989828a016200029b565b955050604087015167ffffffffffffffff8111156200039d576200039c620000f3565b5b620003ab89828a0162000244565b945050606087015167ffffffffffffffff811115620003cf57620003ce620000f3565b5b620003dd89828a0162000244565b9350506080620003f089828a0162000300565b92505060a087015167ffffffffffffffff811115620004145762000413620000f3565b5b6200042289828a0162000244565b9150509295509295509295565b600081519050919050565b7f4e487b7100000000000000000000000000000000000000000000000000000000600052602260045260246000fd5b600060028204905060018216806200048257607f821691505b6020821081036200049857620004976200043a565b5b50919050565b60008190508160005260206000209050919050565b60006020601f8301049050919050565b600082821b905092915050565b600060088302620005027fffffffffffffffffffffffffffffffffffffffffffffffffffffffffffffffff82620004c3565b6200050e8683620004c3565b95508019841693508086168417925050509392505050565b6000819050919050565b6000620005516200054b620005458462000277565b62000526565b62000277565b9050919050565b6000819050919050565b6200056d8362000530565b620005856200057c8262000558565b848454620004d0565b825550505050565b600090565b6200059c6200058d565b620005a981848462000562565b505050565b5b81811015620005d157620005c560008262000592565b600181019050620005af565b5050565b601f8211156200062057620005ea816200049e565b620005f584620004b3565b8101602085101562000605578190505b6200061d6200061485620004b3565b830182620005ae565b50505b505050565b600082821c905092915050565b6000620006456000198460080262000625565b1980831691505092915050565b600062000660838362000632565b9150826002028217905092915050565b6200067b826200042f565b67ffffffffffffffff81111562000697576200069662000113565b5b620006a3825462000469565b620006b0828285620005d5565b600060209050601f831160018114620006e85760008415620006d3578287015190505b620006df858262000652565b8655506200074f565b601f198416620006f8866200049e565b60005b828110156200072257848901518255600182019150602085019450602081019050620006fb565b868310156200074257848901516200073e601f89168262000632565b8355505b6001600288020188555050505b505050505050565b61072380620007676000396000f3fe6080604052600436106100295760003560e01c8063ec3313db1461002e578063ed88c68e1461005f575b600080fd5b34801561003a57600080fd5b50610043610069565b60405161005697969594939291906104ff565b60405180910390f35b6100676102d9565b005b600080600001805461007a906105b9565b80601f01602080910402602001604051908101604052809291908181526020018280546100a6906105b9565b80156100f35780601f106100c8576101008083540402835291602001916100f3565b820191906000526020600020905b8154815290600101906020018083116100d657829003601f168201915b505050505090806001015490806002015490806003018054610114906105b9565b80601f0160208091040260200160405190810160405280929190818152602001828054610140906105b9565b801561018d5780601f106101625761010080835404028352916020019161018d565b820191906000526020600020905b81548152906001019060200180831161017057829003601f168201915b5050505050908060040180546101a2906105b9565b80601f01602080910402602001604051908101604052809291908181526020018280546101ce906105b9565b801561021b5780601f106101f05761010080835404028352916020019161021b565b820191906000526020600020905b8154815290600101906020018083116101fe57829003601f168201915b505050505090806005018054610230906105b9565b80601f016020809104026020016040519081016040528092919081815260200182805461025c906105b9565b80156102a95780601f1061027e576101008083540402835291602001916102a9565b820191906000526020600020905b81548152906001019060200180831161028c57829003601f168201915b5050505050908060060160009054906101000a900473ffffffffffffffffffffffffffffffffffffffff16905087565b60006002015460006001015411610325576040517f08c379a000000000000000000000000000000000000000000000000000000000815260040161031c90610636565b60405180910390fd5b60008060060160009054906101000a900473ffffffffffffffffffffffffffffffffffffffff1690508073ffffffffffffffffffffffffffffffffffffffff166108fc349081150290604051600060405180830381858888f19350505050158015610394573d6000803e3d6000fd5b5034600060020160008282546103aa9190610685565b9250508190555042343373ffffffffffffffffffffffffffffffffffffffff167fe6add99d06d9ad7fc456e746aa162eed6211c5002ef2dacdd67b8d2016822fba60405160405180910390a4346000600101600082825461040b91906106b9565b9250508190555050565b600081519050919050565b600082825260208201905092915050565b60005b8381101561044f578082015181840152602081019050610434565b60008484015250505050565b6000601f19601f8301169050919050565b600061047782610415565b6104818185610420565b9350610491818560208601610431565b61049a8161045b565b840191505092915050565b6000819050919050565b6104b8816104a5565b82525050565b600073ffffffffffffffffffffffffffffffffffffffff82169050919050565b60006104e9826104be565b9050919050565b6104f9816104de565b82525050565b600060e0820190508181036000830152610519818a61046c565b905061052860208301896104af565b61053560408301886104af565b8181036060830152610547818761046c565b9050818103608083015261055b818661046c565b905081810360a083015261056f818561046c565b905061057e60c08301846104f0565b98975050505050505050565b7f4e487b7100000000000000000000000000000000000000000000000000000000600052602260045260246000fd5b600060028204905060018216806105d157607f821691505b6020821081036105e4576105e361058a565b5b50919050565b7f726571756972656420616d6f756e742066756c66696c6c656400000000000000600082015250565b6000610620601983610420565b915061062b826105ea565b602082019050919050565b6000602082019050818103600083015261064f81610613565b9050919050565b7f4e487b7100000000000000000000000000000000000000000000000000000000600052601160045260246000fd5b6000610690826104a5565b915061069b836104a5565b92508282019050808211156106b3576106b2610656565b5b92915050565b60006106c4826104a5565b91506106cf836104a5565b92508282039050818111156106e7576106e6610656565b5b9291505056fea2646970667358221220c8139a5ea2d8af7e430e5bf2833b6b0000edea2dd10d85faeee16c4907d7773964736f6c63430008130033",
  "linkReferences": {},
  "deployedLinkReferences": {}
}